:020000040000FA
:06000000020C9402024212
:03002B00020A0ABC
:0300330002026462
:0300530002017C2B
:03006B0002092463
:03007B000207B5C4
:100083000201D3010100F0FF0700080000FFFF0099
:1000930000030400000F0100000300010020FD0025
:1000A300020000CA1100000000401154129A110C02
:1000B30012701100000000000000000000000000AA
:1000C3000000000000000000000000761106FFFFA2
:1000D300FF00035F005F00300058000000000000D5
:1000E300000000000000000000000000000000000D
:1000F3000000000000000000000000D7052C062CC3
:10010300062C062C063406010400005C14000000D3
:10011300E8030000FFFF2C15018813000003E80328
:10012300000064006400B801A0BB0D00A0BB0D007B
:100133000202020704010101051E02051E020A0A4A
:1001430001010809080103B80B02803E0102FEFF0A
:10015300E8030A050001FFFF0A011401E00105039A
:100163000101FF0F10FEFFA92E00000000DF2D008C
:10017300000000FF000000FF00C0E074F2120578E9
:10018300A2AFE433F508D2AFAFA7AEA1EE5F541030
:100193006006120EBE75A1EFEE5F54086008120EE2
:1001A300C475A1F78023EEA2E092F0EFA2E082F003
:1001B3005017906198E0F8900561E0C398A2D2656A
:1001C300D0335002E8F075A1FE751A00E508806689
:1001D300C0E074F2120578A2AFE433FED2AF9061AF
:1001E300A4E0F8759B00E59158540860087591F7F1
:1001F300120F128023E59158541060087591EF1285
:100203000F188014E591A2E092F0E8A2E082F0508A
:1002130007E0C2E0F012106E9061A3E0F8E5E95840
:100223005404600E12104475E9FB906193E0A2E65A
:1002330040F2751A00EEA2E092AF7F01020634C0CD
:10024300E074F2120578A2AFE433FED2AF9061A559
:10025300E0F8E5BF585404600675BFFB12108680B2
:10026300D1C0E074F1120578E59DA2E650FA9062E0
:1002730006E0F9A2E25034AA2CEA90620BF0F508EA
:10028300852D0974047808120CB3E508906207F011
:100293008A08852D0974097808120CB3E508543EC1
:1002A300906209F0906201E0D2E0F0E9782946F625
:1002B300906202E0F50875090074047808120BAB2C
:1002C3007829E50846F608E50946F6906204E0F564
:1002D3000875090074097808120BAB782AE50946FA
:1002E300F6E9A2E05003752B017406596003752BE0
:1002F30000E58BA2E55006758BDF752B001215DE2A
:10030300758B00C2E87F02020634C3E498F8E499CF
:10031300F912034E8026C3E49AFAE49BFBE920E733
:10032300E912034EE498F8E499F922C3E498F8E457
:1003330099F912034EE498F8E499F9C3E49AFAE4BC
:100343009BFB22EB20E7CFE920E7E0B90010BB00DD
:1003530008E88AF084F8AAF022E4FBC8FA22EB70DA
:10036300227B10C833C8C933C9335007C39AC3DBD0
:10037300F280069A50012ADBEAC833F4C8C933F481
:10038300C9FA2275F008E4C833C8C933C933C99A16
:10039300C99B5004C92AC93BD5F0ECFBC833F4C848
:1003A300E4C9FA22080808EAC0E0EBC0E086F0E7F7
:1003B300A4FA180986F0E7A42AFA180986F0E7A434
:1003C3002AFA180986F0E7A42AFA1986F0E7A4FBAB
:1003D300E5F02AFA190886F0E7A42BFBE5F03AFAD0
:1003E300190886F0E7A42BFBE5F03AFA18180986FA
:1003F300F0E7A4C5F02BFBE43AFA1908E7C5F0C609
:10040300A426F6E5F03BFBE43AFA1886F0E7A4F6F7
:10041300E5F00826F6E43B08F6E43A08F6D0E0FBFC
:10042300D0E0FA22120D0EB90003020487E4792109
:10043300780DB800028004F709D8FCE49004D17861
:100443006D79158002F0A3D8FCD9FA781A9000864A
:100453007A01BA00028007E493A3F608DAF97A3D39
:100463007B1990008778F679018015E493A3AD8218
:10047300AE838A828B83F0A3AA82AB838D828E8321
:10048300D8E9D9E77582DD7583FD74061209EC7529
:1004930082DA75832B74001209ECE4CFC0E0E4CE5A
:1004A300C0E0E4CDC0E0E4CCC0E075F020E626F681
:1004B30008E633F608E633F608E633F6181818ECC0
:1004C30033FCED33FDEE33FEEF33FFC3EC9709ED61
:1004D3009709EE9709EF97191919400FFFEC97FC4D
:1004E30009ED97FD09EE97FE191906D5F0BFECF754
:1004F30009EDF709EEF709EFF7191919D0E0FCD068
:10050300E0FDD0E0FED0E0FF222518C582C0E0E583
:100513001934FFC583C0E0E518C3958224F810AFF2
:10052300088583198582188008858319858218D2E6
:10053300AFCEF0A3E520F0A37808E608F0A3DEFA37
:10054300EFF0A3E58124FAF8E608F0A3E608F0A3A8
:10055300E608F0A30808E608F0A3E608F0A315816F
:100563001581D0E0FED0E0F8158115811581E8C032
:10057300E0EEC0E022C0D02518C582C0E0E5193402
:10058300FFC583C0E0E518C3958224F310AF088547
:1005930083198582188008858319858218D2AFC88C
:1005A300F0A3E9F0A3EAF0A3EBF0A37908E709F0DD
:1005B300A3D8FAECF0A3EDF0A3EEF0A3EFF0A3D0F1
:1005C300E0F0A3D0E0F0A3D0E0F0A3E520F0A3E5B2
:1005D300F0F0A32212010002020000205104A81629
:1005E3000900010203010902430002010080190905
:1005F300040000010202010005240010010424028A
:1006030002052406000105240100010705820340B9
:10061300004009040100020A0000000705840240AB
:10062300000007050402400000F205000015060063
:1006330000851983851882E0C0E0A3E0F9A3E0FAFE
:10064300A3E0FBA37808E0F608A3DFFAE0FCA3E04D
:10065300FDA3E0FEA3E0FFA3E0C0E0A3E0C0E0A3AE
:10066300E0F5D0A3E0F520A3E0A3F5F010AF0885F3
:1006730083198582188008858319858218D2AFD0A3
:1006830082D083D0E0F8D0E03275F0108E218F2233
:10069300858226858325851882851983E0CEA3E08C
:1006A300CF852682852583EBC9EAC8EDCBECCAC387
:1006B300E833C8E933C9EA33CAEB33CBC3EA9EF55F
:1006C30024EB9FF523B35004AB23AA24EC33CCEDE6
:1006D30033CDD5F0DAAE21AF2222D083D082ECC065
:1006E300E0EDC0E0E493A3FCE493A3FDED4C600DC7
:1006F3001207F8EC24FFFCED34FFFD80EFE493A335
:10070300FCE493A3FDED4C600D1208CFEC24FFFC39
:10071300ED34FFFD80EFD0E0FDD0E0FCE493A3C017
:10072300E0E493C0E022D083D082E9C0E0E493A365
:10073300C386F0C5F095F0F908E493A386F0C5F0FD
:1007430095F0700BE493A3C3994005E9048002A3D9
:10075300E475F002A42582F582E5F03583F583D0B4
:10076300E0F9E493A3C0E0E493C0E0228519838514
:100773001882E0A3FEE0A3F5207808E0A3F608DFE3
:10078300FAE0A3FFE0A3C0E0E0A3C0E0E0A3C0E081
:10079300E0A3C0E0E0A3C0E010AF08858218858322
:1007A300198008858218858319D2AFD083D082023D
:1007B30009F2C0E074F2120578A2AFE433FED2AFBF
:1007C300E58AA2E25007900522E0D2E0F0E58AA292
:1007D300E35007900522E0D2E1F0758A00C2EB7A7C
:1007E300107B0090051EE0F9121380EEA2E092AF99
:1007F3007F01020634C0E0C3E49396087401939624
:1008030018400FE49366700808740193661870002B
:100813007019A3A3C3E49396087401939618A3A332
:10082300400DD0E0D0E0D0E0020719A3A3A3A3A317
:10083300A3D0E022D083D082C5F0E493A3C5F0C354
:1008430095F0F5F0E493A3C395F04005E5F004803B
:1008530001E475F002A42582F582E5F03583F58382
:10086300E493A3C0E0E493C0E0227404800874031B
:10087300800474028000CCC0E0EDC0E0E518C39CA6
:10088300CCAD1950011D10AF068C188D1980068C44
:10089300188D19D2AF12096ED0E0FDD0E0FC22749E
:1008A300028000CCC0E0EDC0E0E518C39CCCAD19DC
:1008B30050011D10AF068C188D1980068C188D19E8
:1008C300D2AF12094CD0E0FDD0E0FC22C0E0C0F072
:1008D30088F0E4936670080874019366187000A8A2
:1008E300F0A3A3700BD0F0D0E0D0E0D0E002071962
:1008F300A3A3D0F0D0E022D083D082CCC0E0E49395
:10090300A3600612098F1470FAE493A36006120B16
:10091300071470FAD0E0FCE493A3C0E0E493C0E0D2
:1009230022C0E074F2120578758900C2C59016DE04
:10093300E0700E7A007B109005FBE0F912138080C3
:1009430003121C987F01020634CAC0E0E493A3C5D6
:1009530082CCC582C583CDC583F0A3C582CCC582B5
:10096300C583CDC583DAE5D0E0CA22CAC0E0E0A3DF
:10097300C582CCC582C583CDC583F0A3C582CCC552
:1009830082C583CDC583DAE6D0E0CA22C0E0E49312
:10099300A3D39C5010E493A3C39C400AD0E0D0E0BF
:1009A300D0E0020917A3A3A3D0E022C008C3E096B6
:1009B300F50808A3E096420808A3E096420808A3B6
:1009C300E09645087001D3D0082270090808082270
:1009D3006016181818C6C333C608C633C608C6330C
:1009E300C608C633C6D5E0EA22C09FF59FE473D09C
:1009F3009F22D083D082C09FE493C0E0740193C050
:100A0300E0740293F59F22C0E0C0D0E8C0E0A8A83C
:100A1300D2AFC2C7751A00E8A2E792AFD0E0F8D010
:100A2300D0D0E0322518F58210AF08F518400C1528
:100A3300198008F51840021519D2AF85198322745D
:100A430004800A74038006740280027401C0E0F417
:100A530004120A27D0E0120CD12200C0D0251810AE
:100A6300AF08F518500C05198008F5185002051940
:100A7300D2AFD0D022BB0102E722C082C0838982D9
:100A83008A83BB0003E08002E493D083D082226098
:100A930016080808C6C313C618C613C618C613C655
:100AA30018C613C6D5E0EA22C3E0C696F608A3E04B
:100AB300C696F608A3E0C696F608A3E0C696F62205
:100AC3002518F8E43519F9222518FAE43519FB221B
:100AD3002518FCE43519FD22BB000EC082C0838AB1
:100AE300838982F0D083D08222BB0101F7222518AB
:100AF30010AF08F518400C15198008F518400215B9
:100B030019D2AF22C0E0E493A36C7009D0E0D0E027
:100B1300D0E0020917A3A3D0E022E766701008090A
:100B2300E766700A0809E76670040809E76622C3E6
:100B3300E09608A3E09608A3E09608A3E096A2D265
:100B430065D03322E066701008A3E066700A08A33C
:100B5300E066700408A3E06622C3E697F60809E698
:100B630097F60809E697F60809E697F622C3E09692
:100B7300F008A3E096F008A3E096F008A3E096F04F
:100B830022C3E4939608740193960874029396081B
:100B93007403939622E026F008A3E036F008A3E05E
:100BA30036F008A3E036F022700422600D18C6C3A5
:100BB30033C608C633C6D5E0F41822E657F608094B
:100BC300E657F60809E657F60809E657F622E0560F
:100BD300F608A3E056F608A3E056F608A3E056F697
:100BE30022E647F60809E647F60809E647F6080944
:100BF300E647F622E627F60809E637F60809E63758
:100C0300F60809E637F622E026F608A3E036F608EA
:100C1300A3E036F608A3E036F622E493F60874015F
:100C230093F608740293F608740393F622E056F0E1
:100C330008A3E056F008A3E056F008A3E056F0221C
:100C4300E4C396F608E496F608E496F608E496F606
:100C530022C6F4C608C6F4C608C6F4C608C6F4C657
:100C630022600D08C6A2E713C618C613C6D5E0F363
:100C730022C3E7960809E7960809E7960809E79665
:100C830022C3E09608A3E09608A3E09608A3E096A3
:100C93002275D00075813F7518D1751904000204BF
:100CA30027E6F008A3E6F008A3E6F008A3E6F0229F
:100CB300600C08C6C313C618C613C6D5E0F422E0F9
:100CC300F608A3E0F608A3E0F608A3E0F622CAC0FC
:100CD300E0E6F0A308DAFAD0E0FA22E8F0A3E9F0BC
:100CE300A3EAF0A3EBF022E0F8A3E0F9A3E0FAA370
:100CF300E0FB22EAF0A3EBF0A3ECF0A3EDF022E09B
:100D0300FAA3E0FBA3E0FCA3E0FD22E5C754F8440B
:100D130001F5C77901222518F582E43519F58322F7
:100D2300C2AF75D69F020000221209F55DE00512DD
:100D330009F5F5E0051209F59CE1051209F5EFE166
:100D4300051209F51BE2051209F55CE2051209F526
:100D530009E4051209F5EDE4051209F59EE505120E
:100D630009F5F289071209F5038A071209F5A18A21
:100D7300071209F5ED7F001209F5D9FF021209F5F3
:100D83003788071209F54788071209F55F880712A4
:100D930009F51389071209F54586071209F5C9866E
:100DA300071209F53187071209F56F8B071209F549
:100DB300728B071209F5AB8B071209F5FB8B071230
:100DC30009F50E8C071209F5118C071209F5F5DBED
:100DD300061209F503DC061209F57CDC061209F597
:100DE30051DD061209F510DF061209F575DF06124B
:100DF30009F5D0DF061209F5F87F001209F5D0FBDB
:100E0300061209F508FC061209F556FD061209F546
:100E1300DAFD061209F550F4061209F5FAF4061282
:100E230009F533F5061209F57AF5061209F53DF6CB
:100E3300061209F565F6061209F58BF6061209F591
:100E43009FF6061209F5B4F6061209F5BDF6061269
:100E530009F59BB0061209F5C7B0061209F56FB381
:100E6300061209F5C6B3061209F502B4061209F50E
:100E730016B4061209F52FB4061209F520B50612A9
:100E830009F5FCB5061209F510B6061209F56F81CE
:100E9300071209F59381071209F5AC81071209F5C9
:100EA300EA81071209F51A82071209F54782071228
:100EB30009F55182071209F5B782071209F5BA82BB
:100EC300071209F5C482071209F5D182071209F541
:100ED30050FD031209F570FD031209F5AFFD03126E
:100EE30009F5CDFD031209F5E8FD031209F54EFEE0
:100EF300031209F55AFE031209F5B7FE031209F5A9
:100F0300C6FE031209F5EAFE031209F5ABFF03124D
:100F130009F5B8FF031209F5C9FF031209F5618D3D
:100F2300071209F5798D071209F5A58D071209F541
:100F33008DBB061209F5E7BC061209F5F5BC0612CE
:100F430009F508BD061209F51DBD061209F532BDE6
:100F5300061209F545BD061209F5C1BD061209F5CC
:100F630026BE061209F5AEBE061209F526BF061205
:100F730009F5FFBF061209F50FC0061209F51EC0D9
:100F8300061209F5C88C071209F5EC8C071209F54E
:100F9300148D071209F53C8D071209F5F4F60612B4
:100FA30009F51BF7061209F53AF7061209F59EF73C
:100FB300061209F586F1061209F59FF1061209F5E5
:100FC300ABF1061209F5BFF1061209F5DDF10612C0
:100FD30009F5E7F1061209F5F1F1061209F504F234
:100FE300061209F591F2061209F500F3061209F546
:100FF3002FF3061209F57DF3061209F5CCF3061259
:1010030009F5E7F3061209F5F1F3061209F502F4FF
:10101300061209F545F4061209F56E8E071209F555
:10102300B98E071209F525F5041209F551F50412D5
:1010330009F56EF5041209F581F5041209F59CF51D
:10104300041209F5F6F5041209F524F6041209F55C
:101053002AFA041209F57BFB041209F5ADFB04120D
:1010630009F50FFC041209F589FD041209F5B1FD18
:10107300041209F5C6FD041209F5D6FD041209F59B
:1010830016FE041209F558FE041209F568FE04124F
:1010930009F5DB82071209F5F582071209F51D83AD
:1010A300071209F53683071209F55A83071209F562
:1010B3007883071209F58F83071209F5BD83071299
:1010C30009F5D883071209F5BB8A071209F5018BC5
:1010D300071209F59BE7061209F5ABE7061209F5B6
:1010E300B2E8061209F5E6E8061209F512E9061256
:1010F30009F535E9061209F553E9061209F58DE9F3
:10110300061209F5F6E9061209F538EA061209F599
:101113007FEA061209F5ACEA061209F5D7EA0612C8
:1011230009F5ECD7061209F54ED8061209F5F5D8DC
:10113300061209F52CD9061209F579CA051209F523
:1011430028CB051209F55BCD051209F532D005123E
:1011530009F5C4D1051209F5FDD1051209F588D2A7
:10116300051209F508D6051209F550D7051209F538
:101173002089071209F5A49B061209F5C89B0612DC
:1011830009F53F9D061209F5CD9E061209F574A1D6
:10119300061209F5ABA1061209F524B6061209F5E4
:1011A300E3B8061209F580B9061209F5ACB90612BF
:1011B30009F5DAB9061209F50FBA061209F537BAB5
:1011C300061209F597BA061209F50080061209F509
:1011D3000684061209F50486061209F532870612FB
:1011E30009F51288061209F5C789061209F5938ACB
:1011F300061209F5E78A061209F5817D001209F541
:101203008B7D001209F5AC7D001209F5976E001273
:1012130009F50573001209F56A74001209F546769B
:10122300001209F52C77001209F5B777001209F5BA
:101233005678001209F54F79001209F5817A0012E8
:1012430009F5997B001209F5B47C001209F563D7FF
:10125300041209F59BD7041209F56CE2041209F58F
:1012630069E3041209F5BBE4041209F518E6041254
:1012730009F5F1E6041209F5BFE7041209F5A6E83A
:10128300041209F595E9041209F53DEA041209F57A
:101293006DEA041209F51FEC041209F595EC04122A
:1012A30009F5AEEC041209F50FEE041209F5CDEEC3
:1012B300041209F56CEF041209F515F0041209F58F
:1012C30083F0041209F521F1041209F5A4F10412C3
:1012D30009F5DCF1041209F5F3F2041209F5C1F37F
:1012E300041209F572F4041209F50080071209F5D6
:1012F3002A80071209F53F81071209F54281071277
:1013030009F561FF051209F5A3FF051209F5E5FFCC
:10131300051209F5F5FF051209F50DAA061209F5DF
:101323004BAA061209F5B4AA061209F5D3AA0612A6
:1013330009F5ECAA061209F59EAB061209F5A7AB4F
:10134300061209F5F8AB061209F52EAC061209F5DB
:1013530045AC061209F5B1AC061209F541AD06120A
:1013630009F577AD061209F5BBAD061209F51CAEFA
:10137300061209F54EAE061209F5C1AE061209F5BD
:1013830015AF061209F552AF061209F589AF061219
:1013930009F59BAF061209F5ADAF061209F5E5AFE6
:1013A300061209F531B0061209F56FB0061209F5F8
:1013B3004FC0061209F58FC1061209F5B2C1061214
:1013C30009F5C3C1061209F5DBC3061209F5FBC310
:1013D300061209F595F9061209F5C9F9061209F578
:1013E30011FA061209F56DFB061209F51BEA021242
:1013F30009F559EB021209F595EB021209F564EDB3
:10140300021209F58EED021209F525F0021209F513
:1014130065F0021209F5FAF1021209F58FF20212D0
:1014230009F5EDF2021209F580F3021209F5BAF398
:10143300021209F5FCF3021209F56FF5021209F520
:10144300F3F6021209F518F9021209F546F9021228
:1014530009F572F9021209F57BF9021209F5D1F9BE
:10146300021209F561FA021209F564FD021209F587
:10147300E6FD021209F51A8C071209F5308C0712E2
:1014830009F53A8C071209F5968C071209F58FD3E3
:10149300061209F5A5D3061209F54AD4061209F571
:1014A30089D4061209F5A6D4061209F5D7D4061273
:1014B30009F524D5061209F558D5061209F593D571
:1014C300061209F56FD7061209F5DAD7061209F5E0
:1014D3000B84071209F56A84071209F5C4840712FD
:1014E30009F53285071209F5A485071209F5E28586
:1014F300071209F52386071209F58293061209F5E7
:101503008893061209F5D093061209F5DC950612A5
:1015130009F50C96061209F57896061209F5359722
:10152300061209F57697061209F5A897061209F52A
:101533003298061209F54998061209F556980612CB
:1015430009F56098061209F5009A061209F50D9B34
:10155300061209F56B9B061209F5058B061209F5B0
:101563001B8B061209F5CD8B061209F5F78C0612B3
:1015730009F5EC8D061209F5898E061209F5C48E5C
:10158300061209F5368F061209F5948F061209F52E
:10159300A48F061209F5CB8F061209F51D900612CA
:1015A30009F58691061209F58B91061209F5AD919D
:1015B300061209F5E68D071209F5148E071209F5CF
:1015C300498E071209F54B8E071209F54D8E071246
:1015D30009F55E8E071209F5608E071209F5638E11
:1015E300071209F54AFE021209F5B8FE021209F5BF
:1015F300DAFE021209F512FF021209F548FF021280
:1016030009F56EEE061209F5B5EE061209F5D8EEE8
:10161300061209F50BF1061209F525F1061209F573
:1016230050F1061209F5C58E071209F5A8F8011243
:1016330009F581F9011209F567FA011209F578FA3A
:10164300011209F589FA011209F5D5FA011209F512
:10165300C9FC011209F523FE011209F553FE01121B
:1016630009F517FF011209F575FF011209F530DDC0
:10167300031209F562DD031209F5F4DD031209F51E
:1016830062DF031209F55AE0031209F5CFE10312F1
:1016930009F5EBE1031209F53AE2031209F5CCE28D
:1016A300031209F527E3031209F53AE3031209F5D7
:1016B300A4E3031209F513E4031209F5BCE40312CE
:1016C30009F5B1E5031209F50CE6031209F592E6F3
:1016D300031209F5FEE8031209F5D5E9031209F52A
:1016E30013EB031209F594EB031209F5D8EB03127C
:1016F30009F5A8EC031209F52FED031209F571EDB5
:10170300031209F590ED031209F5DBED031209F558
:10171300FBED031209F5BEEE031209F5E4EF031224
:1017230009F5EFEF031209F544F0031209F599F0F7
:10173300031209F5F3F0031209F5FBF1031209F59E
:10174300AAF4031209F5D0F4031209F5D1F5031233
:1017530009F5FEF5031209F57DF6031209F555F7B0
:10176300031209F58CF7031209F50FF8031209F5B3
:1017730028F9031209F558F9031209F562F903125E
:1017830009F565F9031209F56FF9031209F58BF9E8
:10179300031209F5FEF9031209F537FA031209F5E5
:1017A30053FA031209F57FFA031209F5A6FA031295
:1017B30009F5CAFA031209F56DFB031209F5E0FBFB
:1017C300031209F523FC031209F52DFC031209F595
:1017D30064FC031209F57EFC031209F59BFC03125A
:1017E30009F5CAFC031209F5E9FC031209F501FD29
:1017F300031209F513FD031209F54A87071209F5C8
:101803005B87071209F5E687071209F54DCA061229
:1018130009F58BCA061209F524CB061209F52FCC5C
:10182300061209F577CE061209F5ACCE061209F5B4
:10183300E1A2061209F530A3061209F5EEA4061279
:1018430009F5C1A6061209F5FFA6061209F5D5A7E3
:10185300061209F5DEA8061209F500A9061209F514
:101863005CA9061209F5DDA9061209F50080041228
:1018730009F52280041209F5CA81041209F51382BD
:10188300041209F58382041209F50083041209F591
:101893006683041209F56983041209F5B0830412FF
:1018A30009F52184041209F5CC84041209F5CF84C7
:1018B300041209F54785041209F58C85041209F50C
:1018C3009689041209F5F48A041209F5278B041288
:1018D30009F56D8B041209F5CA8E041209F55D8FA3
:1018E300041209F50591041209F53592041209F55C
:1018F3007093041209F5EB93041209F5FF94041293
:1019030009F59B95041209F5AF95041209F578962C
:10191300041209F5AE97041209F5CE99041209F5DC
:10192300009C041209F5DC9C041209F55C9F041267
:1019330009F532A0041209F555A1041209F5BAA458
:10194300041209F5CAA4041209F530A6041209F514
:10195300E0A6041209F5F8A7041209F5A3A90412D5
:1019630009F523AA041209F56EAB041209F5B4AB09
:10197300041209F591AC041209F50080051209F56A
:101983009B80051209F50E81051209F529810512BF
:1019930009F5C881051209F51082051209F53F837F
:1019A300051209F57E83051209F5F583051209F57C
:1019B3004684051209F5AD84051209F5B8850512AB
:1019C30009F5DD88051209F5F389051209F5708A11
:1019D300051209F56C8C051209F5118D051209F52F
:1019E300C68D051209F52B8E051209F59A8E05127F
:1019F30009F5B08F051209F5AF90051209F5EA90C4
:101A0300051209F50191051209F5C091051209F5B1
:101A1300FF91051209F57A92051209F5F393051260
:101A230009F59595051209F5F596051209F56298DC
:101A3300051209F57499051209F5019A051209F5BC
:101A4300719A051209F5919B051209F549AD041226
:101A530009F5ACAD041209F5F4AD041209F538AE7D
:101A6300041209F5A9AE041209F503AF041209F52E
:101A73003EAF041209F5D8AF041209F532B00412CF
:101A830009F599B1041209F512B2041209F539B234
:101A9300041209F54BB3041209F536B4041209F51F
:101AA30083B4041209F591B5041209F5B9B504120A
:101AB30009F515B7041209F526B7041209F53EB75F
:101AC300041209F522B8041209F50FB9041209F535
:101AD30012BA041209F53CBA041209F554BA0412F5
:101AE30009F56FBA041209F5AEBA041209F5CEBAB4
:101AF300041209F5F7BA041209F50EBB041209F52D
:101B0300E8BB041209F542BC041209F5F4BE041241
:101B130009F522C0041209F558C0041209F562C080
:101B2300041209F579C0041209F5EAC0041209F593
:101B3300DAC1041209F510C2041209F5DAC204125B
:101B430009F589C3041209F5B7C3041209F5F9C4E9
:101B5300041209F518C5041209F597C5041209F50D
:101B6300D3C5041209F511C6041209F59AC6041265
:101B730009F509C7041209F5E8C7041209F5C6C92E
:101B8300041209F59BCA041209F5EBCA041209F5FC
:101B930053CC041209F56ACE041209F516D10412C6
:101BA30009F5E9D2041209F5AFD3041209F523D4D8
:101BB300041209F577DB051209F554D5041209F56A
:101BC30051D6041209F5C0D6041209F52DCF061219
:101BD30009F558D1061209F520D2061209F575D276
:101BE300061209F5FBD2061209F5E4DF061209F520
:101BF30002E0061209F546E0061209F56CE006124A
:101C030009F593E0061209F5ABE0061209F5C3E006
:101C1300061209F56DE1061209F5AFE1061209F5A1
:101C2300C4E1061209F53BE0051209F5E6E20612E6
:101C330009F5EFE2061209F5F8E2061209F501E3E8
:101C4300061209F50BE3061209F588E3061209F5F6
:101C53004FC5061209F5C5C9061209F5E1C90612F1
:101C630009F5E6C9061209F559FE061209F52FEB27
:101C7300061209F545EB061209F5C6EC061209F53D
:101C8300F0EC061209F536ED061209F53FEE0612E1
:101C930009F598FE041209F5338F071209F5C17F80
:101CA300001209F50080031209F53380031209F5C8
:101CB3009A80031209F52681031209F5CD810312D7
:101CC30009F51582031209F53A82031209F55382C5
:101CD300031209F57982031209F59B82031209F5B0
:101CE300D982031209F52883031209F551830312DC
:101CF30009F5B083031209F58984031209F53F85B9
:101D0300031209F59D85031209F56386031209F58C
:101D1300AD86031209F50487031209F56F870312D1
:101D230009F5AD87031209F50388031209F51F8826
:101D3300031209F54A88031209F5598A031209F5B2
:101D43009F8B031209F5CB8B031209F5FF8B03124B
:101D530009F5208C031209F52F8C031209F53A8C2F
:101D6300031209F5EA8C031209F5598D031209F5DB
:101D7300068E031209F5428E031209F5008F031232
:101D830009F50D90031209F55A90031209F5E9902C
:101D9300031209F54391031209F58891031209F51A
:101DA3001794031209F57195031209F5BD980312EF
:101DB30009F59B99031209F5729A031209F5869A9C
:101DC300031209F5AF9A031209F5209B031209F5D3
:101DD300B69B031209F5299C031209F5189D0312FA
:101DE30009F53D9D031209F5A09E031209F5BE9E58
:101DF300031209F5D19E031209F5359F031209F564
:101E0300449F031209F5CC9F031209F5E29F0312C5
:101E130009F5E6A0031209F5F3A0031209F5FCA0E6
:101E2300031209F5F6A2031209F526A4031209F514
:101E330036A4031209F539A5031209F5B5A5031252
:101E430009F5EEA5031209F526A7031209F56CA7F8
:101E5300031209F547A9031209F528AD031209F581
:101E63003CAD031209F546AD031209F550AD03125B
:101E730009F55AAD031209F564AD031209F57DADF9
:101E8300031209F587AD031209F501AE031209F533
:101E93000CAE031209F53BAE031209F563AE031250
:101EA30009F56EAE031209F5BCAE031209F5C6AE11
:101EB300031209F5D1AE031209F5F5AE031209F5C4
:101EC30019AF031209F576AF031209F5BCAF03127C
:101ED30009F5D8AF031209F55FB0031209F596B0FF
:101EE300031209F5D5B0031209F522B1031209F55E
:101EF300A4B1031209F550B2031209F52CB403126D
:101F030009F59AB4031209F5C6B5031209F5ECB540
:101F1300031209F545B7031209F59DBA031209F532
:101F2300D6BC031209F5B4BE031209F54DBF031263
:101F330009F572C1031209F526C2031209F55FC23E
:101F4300031209F5C5C2031209F5CFC2031209F53D
:101F5300F9C4031209F5DEC5031209F545C70312D7
:101F630009F58DC7031209F541C8031209F5E4C940
:101F7300031209F56BCB031209F58BCB031209F599
:101F8300DECB031209F5DECC031209F506CD0312ED
:101F930009F569CD031209F54CCE031209F5BECE3E
:101FA300031209F5D0CF031209F554D0031209F532
:101FB30052D1031209F5E8D3031209F507D403122A
:101FC30009F552D5031209F520D7031209F574D781
:101FD300031209F52CD8031209F5DCD8031209F50D
:101FE3003FD9031209F504DA031209F59ADA031249
:101FF30009F501DB031209F543DB031209F574DB71
:10200300031209F5D4DC031209F50080021209F565
:102013003280021209F56B80021209F56182021205
:1020230009F5A382021209F58783021209F5DF83FA
:10203300021209F52285021209F56E85021209F5CD
:102043009A88021209F5188C021209F5608D0212A2
:1020530009F5F68D021209F5028E021209F5428E78
:10206300021209F5D78F021209F5CB90021209F576
:10207300F590021209F54C91021209F5A59102128D
:1020830009F51692021209F54B94021209F5E2952D
:10209300021209F5B696021209F5FD97021209F527
:1020A300559A021209F5269D021209F5359D021271
:1020B30009F5B99D021209F56E9E021209F5B19E4A
:1020C300021209F5FA9E021209F54E9F021209F552
:1020D300B39F021209F50FA0021209F52BA00212F9
:1020E30009F55DA0021209F59CA0021209F582A16F
:1020F300021209F531A2021209F5B7A4021209F579
:10210300EDA5021209F5D4A6021209F554A702128D
:1021130009F561AB021209F59FAB021209F506AC92
:10212300021209F539AC021209F5CCAC021209F519
:10213300FFAC021209F59AAD021209F5E8AD0212DD
:1021430009F5BBAE021209F582AF021209F520B000
:10215300021209F52AB3021209F53EB4021209F577
:10216300E4B7021209F5E6B8021209F5E9B802125A
:1021730009F518B9021209F517BB021209F5F0BBEC
:10218300021209F515BC021209F531BD021209F557
:10219300E9BD021209F5A0BF021209F504C002123B
:1021A30009F529C0021209F563C0021209F5BEC080
:1021B300021209F59FC1021209F58DC2021209F537
:1021C300C1C2021209F577C3021209F588C50212CA
:1021D30009F5F3C5021209F53BC6021209F596C6C5
:1021E300021209F56ECA021209F563CB021209F550
:1021F3005DCC021209F5DACC021209F5ACCD02125C
:1022030009F589CF021209F51AD0021209F51ED178
:10221300021209F532D1021209F546D1021209F56B
:102223005AD1021209F56ED1021209F5A4D1021294
:1022330009F5D4D1021209F55ED3021209F51CD4B3
:10224300021209F5A0D4021209F5F1D4021209F51C
:102253006AD5021209F5B0D5021209F595D7021213
:1022630009F545D8021209F575D8021209F534D9D2
:10227300021209F5D1D9021209F57CDB021209F524
:1022830069DC021209F5A8DC021209F51ADD021253
:1022930009F55FDE021209F512DF021209F546DFC6
:1022A300021209F55EDF021209F501E0021209F5D7
:1022B300EFE2021209F5BAE4021209F5DEE40212B2
:1022C30009F5FCE4021209F5D0E5021209F5FDE96E
:1022D300021209F5C0E3061209F500E4061209F536
:1022E300CCE5061209F5DBE5061209F559B405122A
:1022F30009F51DB9051209F572B9051209F5B0BB47
:10230300051209F554BD051209F5E4BD051209F5D9
:1023130040C0051209F547C2051209F59EC2051210
:1023230009F592C4051209F5DFC4051209F53DC587
:10233300051209F55FC5051209F566C5051209F50C
:102343007EC5051209F542C6051209F539C70512FE
:1023530009F5D881011209F51A82011209F56C8772
:10236300011209F5B887011209F5FE87011209F573
:102373004B89011209F5B589011209F5FD8901128D
:1023830009F56C8B011209F5B18E011209F5D68F8F
:10239300011209F5949B011209F51D9C011209F51F
:1023A300859F011209F5E4A0011209F53FA101126D
:1023B30009F587A2011209F56FA3011209F516A603
:1023C300011209F597A7011209F528A8011209F5C9
:1023D3002BA8011209F5A2A8011209F5ACA8011254
:1023E30009F5B9A8011209F5E4A8011209F593A9A1
:1023F300011209F582AA011209F53BAB011209F595
:10240300BEAB011209F5DCAB011209F5F1AB011208
:1024130009F51AAC011209F547AC011209F584AEAE
:10242300011209F560AF011209F5AAAF011209F50E
:1024330035B0011209F5E3B0011209F515B1011226
:1024430009F55BB1011209F58EB1011209F5E2B18B
:10245300011209F533B2011209F538B2011209F577
:102463008CB2011209F5F5B2011209F5C3B30112D9
:1024730009F50EB4011209F573B4011209F5CFB4CD
:10248300011209F56BB5011209F5C5B8011209F579
:10249300F2B9011209F592BB011209F5E8BE011266
:1024A30009F57EBF011209F5AEC2011209F569C330
:1024B300011209F5B1C3011209F56AC5011209F543
:1024C3007EC5011209F588C5011209F592C50112ED
:1024D30009F59EC5011209F5BDC5011209F50BC821
:1024E300011209F564C8011209F56EC8011209F554
:1024F30078C8011209F5FEC8011209F552C9011283
:1025030009F55FCA011209F5CFCA011209F5D9CB42
:10251300011209F522CC011209F5C9CC011209F502
:10252300A9CD011209F576CE011209F5A9CF011241
:1025330009F5E6D0011209F5E7D1011209F5FFD13A
:10254300011209F533D2011209F53DD2011209F541
:1025530047D2011209F552D2011209F570D20112C4
:1025630009F5B8D2011209F516D3011209F53DD3C5
:10257300011209F54FD3011209F5EAD3011209F546
:102583001FD4011209F51DD5011209F573D50112E6
:1025930009F562D6011209F598D6011209F5FBD6A1
:1025A300011209F573D7011209F518D9011209F5BA
:1025B30040DA011209F51EDB011209F5EFDB011206
:1025C30009F570DC011209F50BDD011209F540DE96
:1025D300011209F5D2DE011209F526DF011209F510
:1025E30092DF011209F558E0011209F5A9E0011281
:1025F30009F501E1011209F5D2E1011209F5F5E14D
:10260300011209F5A4E2011209F5C6E2011209F566
:1026130027E3011209F575E5011209F578E60112C0
:1026230009F53CE7011209F570E9011209F5BAE968
:10263300011209F505EA011209F560EA011209F52B
:10264300CDEA011209F5FBEA011209F51FEB0112AC
:1026530009F554EB011209F581EB011209F5C7EBFA
:10266300011209F525EC011209F579EC011209F5BE
:10267300A3ED011209F550EF011209F599EF0112CB
:1026830009F5C2EF011209F554F0011209F5CCF076
:10269300011209F5DAF0011209F5FEF0011209F54C
:1026A3005BF1011209F576F1011209F537F2011216
:1026B30009F563F2011209F5A6F2011209F509F30E
:1026C300011209F501F5011209F52EF5011209F5BB
:1026D30023F6011209F520F7011209F5C3F70112D8
:1026E30009F50AF4051209F542F4051209F563F434
:1026F300051209F5A7F4051209F50BF5051209F5FD
:1027030015F5051209F525F5051209F55CF5051210
:1027130009F554F9051209F562FB051209F54FFD98
:10272300051209F5E6FD051209F588FE051209F5FE
:102733005832001209F50133001209F5D83300129B
:1027430009F5E034001209F50035001209F51836D1
:10275300001209F5D237001209F54538001209F5C0
:10276300E238001209F5F939001209F5663A001248
:1027730009F5A13A001209F5F63A001209F5313BC1
:10278300001209F57E3B001209F50E3C001209F513
:102793009B3C001209F5703D001209F5493E0012F9
:1027A30009F5D73E001209F5F73E001209F5243F5B
:1027B300001209F5553F001209F52840001209F5EA
:1027C3003840001209F58740001209F594400012C1
:1027D30009F59D40001209F50D41001209F56D41FF
:1027E300001209F5B841001209F5D341001209F5A9
:1027F300FA41001209F51742001209F523420012AB
:1028030009F5CE43001209F5E743001209F57044B8
:10281300001209F58344001209F5A244001209F5D8
:102823003D45001209F5AD46001209F55448001262
:1028330009F5E348001209F5E648001209F556497F
:10284300001209F57449001209F5194A001209F535
:10285300554A001209F5584A001209F51E4B001299
:1028630009F5814B001209F5BA4B001209F52F4CFB
:10287300001209F54D4C001209F59B4C001209F5A5
:10288300704D001209F5BE4D001209F50C4E0012F1
:1028930009F5994E001209F5CE4E001209F5034FC2
:1028A300001209F5114F001209F5704F001209F5D6
:1028B300E84F001209F52950001209F5795000126A
:1028C30009F5A450001209F5BE50001209F5D850BD
:1028D300001209F5B351001209F5BD51001209F5B3
:1028E300F851001209F50852001209F511520012AD
:1028F30009F56952001209F57D52001209F5B35327
:10290300001209F5C653001209F5DD53001209F54B
:10291300F253001209F58054001209F5E85400122D
:1029230009F59B55001209F5A655001209F5F6564F
:10293300001209F51257001209F55E57001209F546
:10294300CD57001209F50658001209F52058001258
:1029530009F58058001209F51F59001209F56A5943
:10296300001209F52C5C001209F5E25C001209F56E
:10297300725D001209F5BA5F001209F5D25F001209
:1029830009F5D55F001209F5E15F001209F5F55F5E
:10299300001209F5FD5F001209F53060001209F518
:1029A3002361001209F5AE61001209F541620012BC
:1029B30009F5BA62001209F57E63001209F5A063F6
:1029C300001209F53964001209F59664001209F53D
:1029D3009964001209F5C664001209F5DB6400125C
:1029E30009F55565001209F5A166001209F5AC67F2
:1029F300001209F53768001209F53C69001209F560
:102A0300FC69001209F52D6A001209F5536A0012D8
:102A130009F55C6A001209F58A6A001209F5226B4E
:102A2300001209F5D76B001209F5486C001209F57D
:102A3300EF6C001209F5766D001209F5B56D001201
:102A430009F5F86D001209F5326E001209F573D914
:102A5300051209F535D9051209F50FD9051209F53E
:102A630093D8051209F5E8B3051209F519B2051251
:102A730009F5B7B1051209F5FCB0051209F52EAF3A
:102A8300051209F572AE051209F542AE051209F5F4
:102A9300F2AD051209F58DAD051209F54CAD051220
:102AA30009F57EAC051209F50AAC051209F5ADABC3
:102AB300051209F549AB051209F5C1A9051209F576
:102AC30055A9051209F5CFA8051209F5C6A80512DF
:102AD30009F5BAA8051209F587A8051209F5E0A4B6
:102AE300051209F58AA4051209F5E3DF051209F5B4
:102AF30072A4051209F5A9DF051209F527DF0512EE
:102B030009F5C6DE051209F581DE051209F59CDD1E
:102B1300051209F5C0DC051209F567A4051209F5CC
:102B230024A4051209F53CA2051209F574A10512A6
:102B330009F568DC051209F59FA0051209F5B39E96
:102B4300051209F5189D051209F5F49C051209F5FE
:102B5300D8DB051209F5D3F3051209F5CBE206120A
:102B630009F588F3051209F52BF3051209F5F6F2B9
:102B7300051209F5C5F2051209F595F2051209F5D5
:102B83006DF2051209F5F0F1051209F5D2F10512FE
:102B930009F5A2F1051209F522F1051209F549ED2E
:102BA300051209F512EB051209F5E1E8051209F51D
:102BB3002CE8051209F5C8E7051209F593DB0512A0
:102BC30009F553E7051209F50CE7051209F58BE63C
:102BD300051209F545D40400000080FBE4738F005F
:102BE3000100121A87000100D21635000400D7191C
:102BF30025000200DB1926000200DD192700020070
:102C0300DF1928000100E91929000100EA198400ED
:102C13000400AB16860001004B192A000100EB19D2
:102C23002B000100EC192C000100F2192D00080003
:102C3300B8162E000100F3192F000100F41930001B
:102C43000100F51931000100F61932000100C01628
:102C530033000100C11634000100F71936000100EA
:102C6300C21638000100F81939000100F119830078
:102C730002000F1A63000100CD1664000100ED1974
:102C830065000100EE196D000100CE167100080009
:102C9300B016660001000E1A43000100FF1944003C
:102CA3000200001A45000100021A46000200031A3E
:102CB30047000800C51648000100051A4B00010033
:102CC300061A04000100111AA1000100151A3700A9
:102CD3000100141A88000100131A3C000100C316F6
:102CE3003D000100F91949000200071A67000100BD
:102CF300CF164D000200091A4E0001000B1A4F00B7
:102D030002000C1A3E000100FE1951000100FA19DD
:102D130052000100FB1953000100FD19540001008A
:102D2300C416000000000000000136360101000156
:102D3300020100010301000104010606050200006F
:102D4300070100340801000F090401010D0100FF10
:102D53000E08000017020000190100FF1A0100010C
:102D63001B0100FE1C0100081D0200001F010001E1
:102D730020010001210200002301000F24020000B2
:102D83002601000127010008280200FF2A0100078D
:102D93002B0102402C0100002D0100012E01000136
:102DA3002F0100FF30010B1D310800003A0100081C
:102DB3003B01000F3C0100013D0100FF3E04000008
:102DC30042040000460400004A0400004E040000D0
:102DD30052040000560400005A040000010371036A
:102DE300010301030103010301032203020301039E
:102DF30010030003000300030003000300030003A8
:102E03004203000324030603000300030403120325
:102E130025032303250323030403040300030003FF
:102E2300000344030003000323030003650321009D
:102E330035038103000305030003000300030003BC
:102E430025032303030271023001600211027002A1
:102E53000102020202028002100261023A004100F2
:102E63006302730272026202430200021302380019
:102E73000002000204021202000200020002000229
:102E830004020402370037003C0244020002390006
:102E930000020002650200023502810200020502FF
:102EA30082028302000203007100300160001100FE
:102EB3007000310220035004800010006100000004
:102EC30014006300730072006200430000001300EB
:102ED30006000000000004001200000000000000D3
:102EE300000004000400370037003C0244000000E7
:102EF30000000000000065000000350081000000B4
:102F030005000000830000000101710101010101BE
:102F13001101010131010101010180011001610170
:102F23003B0014006301730172016201430100015C
:102F3300130106013D0135000401120100010001E6
:102F43000001000104010401330133013C01440188
:102F530032013600000100016501000135008101E5
:102F630000010501820183010001030471040204CD
:102F73006004110470040204020401040204100436
:102F830061040004140463047304720462044304BC
:102F930000041304060400040004040412040004DF
:102FA300000400040004510464000004000400044D
:102FB3004404000400040004000465040004350410
:102FC3008104640005040004830400043600010046
:102FD300060000000F0000000000000000000000D9
:102FE300000003FFFF00000403FFFF0000FFFF0FCB
:102FF300F4010005C4040320000100000B000000DD
:10300300000000000003010F0000000000000000AA
:1030130000000000000000000000000000000000AD
:1030230000000000000000000000130014191F003E
:103033001A191F8020190000BC190100BC190200D5
:1030430096180280901803009C180400A2180480AC
:10305300A8180500AE180600BA183000D8183100B9
:10306300D2183200E4183300EA183500F01834009F
:10307300F6183600FC181100081914000E19150073
:10308300CC18FFFF00000A0000000200000004004B
:1030930000000800000010000000200000004000B5
:1030A3000000800000000001000000020000000496
:1030B3000000000800000010000000200000004095
:1030C3000000019A2306CA2308C4230BE82310BC7B
:1030D3001F0AFA2302A02305B82307A6230C822381
:1030E3000D8E2364881DFF000007ECFDFDFDECDC65
:1030F300DCCCBCACAC9C9C8C7C7C6C6C5C5C5C4C1D
:103103004C3C3C2C2C1C1C03EAF5E5D5D5C5B5A5D8
:1031130095958585757565655555454535352525DC
:1031230015150500160F00000B150B020002220FE8
:103133003300000E0F00000000000000000000003C
:1031430000000000005A6967426565416C6C696163
:103153006E63653039D0D1D2D3D4D5D6D7D8D9DAA6
:10316300DBDCDDDEDF000119161816161823030059
:1031730000034D4C4651181A250502303016181914
:1031830020231A1C1E30003C40423A3F3F392F4750
:1031930030303017181921301B1D1F300C0E020B55
:1031A300040B0A0708000F020402010101010902CE
:1031B30000BE040AE80300000E000000E8030C0050
:1031C3001E0000007F0005030004091E100A0C10F6
:1031D3000803FF0C280004040209033C0C05080B38
:1031E300081EE4F0A3F0A3F0A3221231E5F02212AB
:1031F3005FB02408124690221231FF22E0F508E462
:10320300F509F50AF50B22E824FBF582E934FFF50D
:103213008322F58312321B22E0F508A3E0F509228D
:10322300122A367404120A5D7F0802076F7401F0D4
:10323300900579E0640F227409120A5D7F04020786
:103243006FA3A3E024F5C394132290059912622A75
:103253007A147B0022C082C08390181C7490F0A360
:103263007427F0A374A2F0A37427F0901820747845
:10327300F0A37427F0A37472F0A37427F0A374AEC1
:10328300F0A37427F0A374B4F0A37427F0A374A875
:10329300F0A37427F0A37460F0A37427F090182CA4
:1032A3007484F0A37427F0A3748AF0A37427F0A3A3
:1032B300747EF0A37427F0A374BAF0A37427F0907C
:1032C300183D12526360061256DC1213E690183A48
:1032D300124B157408F0A3E4F0A3F09018E6F090F5
:1032E300183FF07C0BFDF97A407B181213267C0BF8
:1032F3007D0079007A4B7B1812132602496D74F70F
:1033030012050C74F7120AF1EAFEEBFF1248CB74B4
:10331300051233C67403F012339B1233A22430FC1C
:10332300E43FFD8C828D83E0888289831233AF6012
:1033330008123BFC74FFF0A3F0EE242EE43F1C1CA8
:10334300FD8C828D83A3E0C0E08A828B831248D2F6
:10335300D0E01233AF888289831251812403125D36
:10336300591214F47408120D197403F090058E1297
:1033730008757402120AD37903EEFAEFFB12295E81
:103383007402120A5DE9F5087007EEFAEFFB1228E2
:103393002CA9087409023C08EE2402FAE43F22FB3C
:1033A3008A828B831233BE124D6AEE221251AD1202
:1033B30033BE124D6A8C828D83E022124C258A82A1
:1033C3008B8322F0A3E4F01233CE22EE240DF58298
:1033D300E43FF5832274F012050CEAFEEBFF8C0C3C
:1033E3008D0D890B12339B124C1C7410120D19E0B6
:1033F300F508A3E088828983F0E824FFF582E912C7
:1034030037C6E508F0E824FEF582E91237C6E50B76
:10341300F0900593E0C0E0E824FDF582E91237C699
:10342300D0E0F0900592E0C0E0E824FCF582E912D8
:1034330037C6D0E0F07412120D1912321712320A85
:10344300E509F0E824FAF8E934FFF988828983E58D
:1034530008F0EE2404FCE43FFD88088A828B83E0B5
:10346300F50E8C828D83E0250EC395081251AD12A3
:103473004D66850C82850D83A3A3A3A3A3A3A3A356
:10348300E064037008124C16F0A3E480031237CBF8
:103493001233C97409F0750840750918750A007864
:1034A30008120A461237B412131A7403120A5D750E
:1034B30008FF7509FF7808120A4AAC0CAD0D7903B1
:1034C300EEFAEFFB12295E7402120A5DE9F5087049
:1034D30007EEFAEFFB12282CA90802322BC082C098
:1034E3008390185CE0C39408400474078001E08A69
:1034F300828B83F033333354F8F902496D74F0123D
:10350300050C8A088B09890A8C0E8D0F750C00A295
:10351300AFE433F50BC2AF90185680451235FC501B
:103523003D12360B64037036E50824F9F508E50906
:1035330034FFF5098E828F83A3A3E02405FCA3E067
:103543003400FDAA08AB091214F4E50824FFF508BA
:10355300E50934FFF5097410250CF50C150A123929
:10356300D9126CE9E50A6004EE4F70B0E50BA2E0F6
:1035730092AFA2AFE433F50BC2AF90185680381266
:1035830051781243728508828509831251AD123630
:1035930002A3A3E0C0E0E50824FFF582E5091237A2
:1035A300C6D0E0F0E50824FEF508E50934FFF50987
:1035B300050C150A1239D9123833602112360B64FF
:1035C3000270F11235FCEE40B61249FFA2E550E459
:1035D300850E82850F837401F0E50A70D7E50BA28F
:1035E300E092AF850882850983E50CF0E50824FFA6
:1035F300FAE50934FFFB02322B1239E8A2E6221264
:103603003606221251A2A3228E828F83A3A31248CD
:10361300D61259162274F012050C74F3120AF174BF
:1036230003120D19E9F07402120D19EAF08B0B85E0
:103633001882851983E4F004120ACB122742E9F8B1
:10364300900578E0292437F508FA7B0012133E8AA7
:103653000C8B0DAE0CAF0DEE4F70030237ABEE24A7
:1036630002F50EE43FF50FA808EE28F8E43FF985CC
:103673000E82850F8312558D900578E0F9FAC3E425
:103683009AFA95E0FB850E82850F83E02AF50CA359
:10369300E03BF50D900576123217750A0078081293
:1036A3000A46E9FC7D00AA0CAB0D12131A7403122F
:1036B3000A5DAC18AD197401120D19E0F9E50C247B
:1036C300FFFAE50D34FFFB1227488A828B83E4F06F
:1036D300E50BC454F0F99018E7E0C4333354C0F851
:1036E300900572E0A2E0E43313134849440FC0E0AD
:1036F300EA24FFF582EB1237C6D0E0F0EA24FEF5A8
:103703000CEB34FFF50D7403120D19E0F87402127B
:103713000D19E0C454F048850C82850D83F0A80C84
:10372300850E82850F83125F792AC3988E828F83D9
:10373300A3A3A3A3F0850E82850F83E8F0A3E50D71
:10374300F01237CB1233C9E4F0740C120D19E4F004
:1037530075084B7509187808120A461237B4121304
:103763001A7403120A5D851882851983E06009EED5
:10377300240E124A014408F0122946E9F9E4F50837
:10378300F5097808120A4A7406120AD3EEFAEFFB17
:1037930012295E7402120A5DE97006EEFAEFFB80ED
:1037A3000BEEFAEFFB1213447A007B00740D023226
:1037B300287C0B7D00EE241BFAE43FFB22EE24FF62
:1037C300F582EF34FFF58322125CD2E4F0A3227476
:1037D300F212050C8A0C8B0DA2AFE433F50AC2AFCB
:1037E300750800750900901856802C1239F350247F
:1037F300850C82850D83A3A3125CDC8E828F83A349
:10380300A31256DF12294CE9600A1239E4C2E6F02A
:103813008E088F091239D912383370CFE50845095C
:1038230060061238CCD2E6F0E50AA2E092AF800D32
:10383300E0FEA3E0FFEE4F227402120A5D7F060250
:10384300076F74F012050C8A0E8B0F8C0C8D0D759F
:103853000A00A2AFE433F50BC2AF7E007F009018DD
:10386300568010AE08AF091238C41249FFD2E7F0F0
:103873001247EC12480260341238CCA2E750F185AB
:103883000882850983A3A3120875AC0CAD0DAA0E9B
:10389300AB0F1229527402120A5DE960D3EE4F6036
:1038A300C2123C9470061238D7D2E4F0E50BA2E0C2
:1038B30092AFEE4F6006122826750A01A90A02325A
:1038C3002B1239E8D2E4F0EE22E508125BFC35094D
:1038D300F583E0228E828F83A3A31248D6E022745D
:1038E300F212050C74FE120AF1750C00750D0085B9
:1038F3001882851983E4F0A3F0A2AF33F50AC2AFAF
:10390300901856126CE98035EE24FBF582EF34FFF4
:10391300123215780C120A4AEEFCEFFD7A567B1828
:103923001213747402120A5DEEFCEFFDAA18AB19B0
:10393300121362AE08AF0990185CE014F0EE4F600A
:103943002B1239F3501DEE240BF8E43FF9888289DA
:1039530083E024FFF0A3E034FFF0888289831252CE
:103963006360A58E0C8F0D1239D98097E50AA2E00A
:1039730092AF90185CE06031900579E0640F6006C7
:103983009018E6E070237A347B18122A429081CF94
:1039930012086D7A347B18122A367404120A5D8079
:1039A3000874F0124E0612281AAA18AB19121368DB
:1039B3008A088B09AE08AF09EE4F60131227541221
:1039C30039E4A2E28E828F83A350D674E980D402B5
:1039D300383B8E0A8F0BEE24FBF582EF34FFF58321
:1039E300221239E822EE2411F582E43FF583E02226
:1039F3001239E8A2E72274F712050CEAFEEBFF1274
:103A030027541248CF122BDFE96401900595700A01
:103A1300E02401F8A3E03400800312484FF9124F69
:103A2300DA124D6690185CE07021900579E0640F1E
:103A330070197A347B18122A429081CF12086D7A5A
:103A4300347B18122A367404120A5DA8A8C2AF90F8
:103A5300185CE004F0E8A2E78004E508A2E092AF76
:103A6300024EC974F712050CEAFEEBFF123A9BF003
:103A7300122754EEFCEFFD7A567B1812136EA8A89A
:103A8300C2AF90185C1243C5900579E0640F7005CE
:103A930079081228F2024EC91239E8C2E42274F7F7
:103AA30012050C74EA120AF1EAFEEBFF900572E0CC
:103AB300603C8518828519837401F0120D19E41294
:103AC3003B73120D19AA82AB831214F41238D7C0B8
:103AD300E0740A120D19D0E0125F95740B120D19E0
:103AE300AA82AB83122976AA18AB19121C5074163A
:103AF300023C0874F712050CEAFEEBFF122736E9C5
:103B0300F974DC69601E74DD69601974E46960141A
:103B130074F369600F74DE69600A74DF69600574A9
:103B2300DB697007EEFAEFFB1228F8024EC974F74F
:103B330012050C74EB120AF1EAFEEBFF851882857D
:103B430019837406123B73120D19AA82AB831214E4
:103B5300F4EE2408FCE43FFD740A120D19AA82ABAB
:103B630083122976AA18AB19121C507415023C084B
:103B7300F0EE2413FCE43FFD74022274F712050CEB
:103B830074F7120AF1EAFEEBFFEE2430124A0160E9
:103B930065124468AA18AB191214F47408120D19AB
:103BA3007403F090058E120875123BFC1208759091
:103BB30005A1E0F97404120AD3EEFAEFFB12273CD5
:103BC3007404120A5DE9F974DC69602374DD6960C9
:103BD3001E74E469601974F369601474DE69600F1C
:103BE30074DF69600A74E869600574DB697007EE65
:103BF300FAEFFB1228F8023396EE242EF582E43F07
:103C0300F583227403120A5D024EC974F212050C85
:103C13008A0C8B0D750A00750B007508E7A2AFE4DB
:103C230033F509C2AF90185680031239D5123833D1
:103C330060361239F350F3123C9470EEEE243212D4
:103C43004A01F88A828B83A3A3E06870DD780A12A5
:103C53000A4AEEFCEFFD7A567B18121374740212B3
:103C63000A5D90185CE014F0E509A2E092AFEE4F14
:103C73006013EEFAEFFB12275479F0EEFAEFFB1222
:103C830028F8750800A908AA0CAB0D1228F8023809
:103C9300401233CEE064012274F412050C74F7125F
:103CA3000AF1EAFEEBFF8E828F83A3E064F37003D5
:103CB300023D458E828F83A3E064DF7003023D459E
:103CC3008E828F83A3E064E860788E828F83A3E083
:103CD30064DB606E122796E9F508705EEE240E121F
:103CE3004A016056123D4F1227D8EA4B604C7408C4
:103CF300120D19123D591208757508FF7509FF78E1
:103D030008120A4A8E828F83A3A3A3A3A3A3A3A308
:103D1300E0F97404120AD312273C7404120A5DE911
:103D2300F50874F36508601274DF6508600C74E8C5
:103D33006508600674DB6508700F8E828F83A3E5C8
:103D430008F0EEFAEFFB1227A202323AEE240FFA42
:103D5300E43FFB79092274021256EE74FFF0A312BA
:103D63003D6622123D6A2212518AA3A32274F112E4
:103D7300050CEAFEEBFF7508008E828F83A3A3A3D5
:103D8300A3A3A312324440037508E88E828F83A352
:103D9300A3A3A3A3A3A3A3A3A3E0C3941040057564
:103DA30008E880138E828F83A3A3A3A3A3A3A3A353
:103DB300A3A3E0640F600B9018C3E054087003756D
:103DC30008E8EE240B124A01F88E828F83A3A3A383
:103DD300A3A3A3A3A3A3A3E0C398500DEE240B12A4
:103DE3004A01640F60037508E8900592E0F47003DC
:103DF300A3E0F470037508EC7A237B001213E08AC6
:103E03000A8B0BA80AA90B90183D123E4360298E1A
:103E1300828F83A3A3A982AA83890C8A0D750E00BE
:103E2300780C120A467C237D0090183DE0FA1213A9
:103E33001A7403120A5D800375081AA908025CC587
:103E4300124D6AE8492274F512050CEAFEEBFF8E67
:103E5300828F83A3A3A3A3A3A3A3A3E090057912B3
:103E6300668F900594126675900574126694901887
:103E7300E7F0F9120FC69018E7E06018EE2404FA91
:103E8300E43FFB7950120FAEEE2406FAE43FFB79D0
:103E9300E1120FAE9018E612323060047401800212
:103EA300740090183F12667B120A467C0B7D007AE1
:103EB300407B1812131A7403120A5DEE2418F508D6
:103EC300E43FF5097808120A467C0B7D007A4B7BA8
:103ED30018024B7474F712050CEAFEEBFF8E828F07
:103EE30083A3E070061256DC12279C124E0012299F
:103EF30010024EC974F712050CEAFEEBFF90183D51
:103F0300125263600D1256DC90183DE4F0A3F012D8
:103F130013E68E828F837408124E06121C50024ED3
:103F2300C974F612050C9018E6E0601390183FE090
:103F3300700D123F4512274EEA4B600312282C02E4
:103F430062B5900574E0FB900594E0FA900579E082
:103F5300F92274F412050C74E7120AF1EAFEEBFF7E
:103F6300750B018E828F83A3A3A3A3A3A3A3E0A2B4
:103F7300E25068EE242BF582E43F125CDA124E9194
:103F830012275AE9705590810EE064017005750B94
:103F9300008048124021120A467C0B7D00741112E6
:103FA3000ACB12131A7403120A5D122946E9FA7432
:103FB3000E120AC3880889097808120A4A7508305C
:103FC3007509007808120A4A124013120875125F25
:103FD3006379011229647406120A5D8518828519B2
:103FE300837410123B73120D19AA82AB831214E867
:103FF300124013126226740B120D19124D66740DC2
:10400300120D19E50B124BB4121C50741902323CF9
:1040130012401722EE242BF582E43FF58322EE248F
:104023000812668322C082C0839018E7E0600312FF
:1040330029B802496DC082C0839018DE741CF0A3B6
:104043007418F0A37420F0A37418F0A3742CF0A3D5
:104053007418F0901A28746DF0A3742FF09018C898
:104063007430F0A37427F09018617466F0A374277A
:10407300F0901863746CF0A37427F09018C3E044B5
:104083000202449EC082C083EAFCEBFD7903025224
:1040930002C082C0837908026433C082C08374FE85
:1040A300120AF19018697414F0A37428F090186B35
:1040B300740EF0A37428F0800D7A567B18121368DF
:1040C300124BAA12293490185612526370EB9018AF
:1040D30058125263600F7A587B18121368124BAA56
:1040E30012293480E9901856E4F0A3F090185CF09C
:1040F300A3F0A3F09018777450F0A37428F074021F
:1041030080027411120A5D02496D74F612050CE9FE
:10411300FF748929F582E43431F583E493FEFA7B55
:104123000012133EEA4B6013EA2E124A4AE8F0A348
:10413300E9125FB5A3A3A3E4F0802C7A027B0012FB
:10414300133EEA4B601D74942FF582E43431F583FA
:10415300E4938A828B83F0A3741AF09018BEE0F97B
:1041630012134A7A007B000262B5E9FC740629F84F
:10417300EAA2E0501EE875F00A84E5F0F9601474D1
:104183000A28C399F8E9C394054004740A28F8740B
:104193000B28F8ECC394134004791480027906E8E1
:1041A3002979002409F85001097A0A7B0012034691
:1041B300E8F90209F2C082C0839018C3E054026098
:1041C3000A121C56E9600479018002790002496DE4
:1041D300C082C0839018C3E05402601690185CE05C
:1041E300700C125260600BE0C81247F95004790159
:1041F3008002790002496DC082C08390810BE0F890
:1042030090185EE0C398500512133E80047A007B39
:104213000002496DC082C083122934790002496DBE
:10422300C082C08374FE120AF1851882851983EA5D
:10423300F0A3EB1243A1A3A3A3A3A3E0600A14601A
:104243005D24FE6060024300900579E0640F60180E
:1042530012290AE970128518828519831256DF9094
:1042630018651248D2122BDF9005A1E0C0E0851833
:104273008285198312515AD0E01243A17414125C3F
:1042830016FCA3E0FD7A587B18121362A8A8C2AFEC
:1042930090185E1243C579201228F202410112439D
:1042A30065741580D9124365A3A3A3A3E0604E12DE
:1042B30043651238DBC0E0851882851983125F8855
:1042C30012437FD0E0125C162402F8A3E03400F915
:1042D30088828983E02401FAA3E03400FB88828981
:1042E30083EAF0A3EB125C161246998518828519AE
:1042F30083601312437260051243884048AA18ABC7
:1043030019122934809512437260F21243885021A6
:10431300124395FA851882851983A3E0C8240612EF
:104323004664F874A91253A53431F583E4936A60A3
:1043330014851882851983124372640870BF12436F
:1043430095640870B8124395141243A9240AC0E077
:104353008518828519831248D2D0E01243A904023A
:104363004281851882851983A3E0F583888222120E
:1043730043762212484FC812437FE0222406F58277
:10438300E438F58322851882851983124376C39412
:104393000A22851882851983123606A3E022124366
:1043A300B3F5838882221243B3C8240612469022AF
:1043B300F085188285198312484F22A8A8C2AF90AE
:1043C300185DE004F0E8A2E792AF22C082C08390B8
:1043D300186D125263600812436C122BDF8002794E
:1043E3000002496D74F712050CEAFEEBFF1233CE9F
:1043F3007401124A09125CCA1233AA2435124A0103
:10440300C0E0EE2413F582E43FF583D0E0F0EE2420
:1044130036124A01C0E0EE2414F582E43FF583D05E
:10442300E0F0EE2438124A01C0E0EE2418F582E4ED
:104433003FF583D0E0F0EE242FF582E43FF58312BD
:104443000875124468EE2431124A01F912295E7488
:1044530002120A5DE9F5087007EEFAEFFB12282C49
:10446300A908024EC9EE2426FCE43FFD22C082C007
:104473008312290AE9600479208002790102496DD7
:10448300C082C083EA2411124494D2E0800DEA244E
:104493000DF582E43BF583E022F0A3F002496DC001
:1044A30082C08312449164017011124530400C8A1A
:1044B300828B83A3E0F91228F8806FEA2410124458
:1044C30094A2E650128A828B83A3E0F990186712B4
:1044D30048D2122BDF80531244916401700D1245B0
:1044E3003050088A828B83743080368A828B83A310
:1044F300E0641B8A828B83700474228024A3E0709F
:104503000D124491F8747E1253A53431800B12447A
:1045130091F874941253A53431F583E4938A828B12
:1045230083F09018BEE0F912134A02496DEA241091
:10453300F582E43BF583E0A2E32274F712050CE96C
:10454300FE125260700302465FEE6011741B6E70C0
:1045530013E0C81246626405700302462D124668D2
:10456300E402463174E96E7061124688700B121CC6
:104573005CE960051246A3606179EE120F2A901878
:104583005F12468590185F603A1246A690185F70D6
:104593000B12468514F01210F202465F124698C2BF
:1045A300E71248351246626403700B125F852411CB
:1045B300124664D2E2F079ED120F2A124678122BDA
:1045C300DF807512466B74E9806474E16E703E128D
:1045D3001C5CE960551246A3705090059BE0C0E057
:1045E300125F852412F582E438F583D0E0F090055C
:1045F3008AE0C0E090185F124674124674D0E0F06F
:1046030090058AE004F079011210DA804F741C6E71
:10461300701890185F1256DF90186F1248D2122B41
:10462300DF90185FE4F0A3F08032124668EEF0905A
:10463300185F1256DF12281A124816E054806010D1
:104643009005A1E0F9120FEA9005A0E0F9120FDE40
:1046530090185FE4F0A3F079101228F2024EC924F7
:104663000D1246902290185F12466F221248DAA369
:104673002212519E2290185F1256E390186312483B
:10468300D622E0F8A3E0C8241212469022F582E471
:1046930038F583E022E0F8A3E0C824101246902204
:1046A30090185F12481DE054042274F412050C752F
:1046B3000A00750B00A2AFE433FEC2AF1252606072
:1046C300030247A21248CF122BDFE94410F89018D7
:1046D30056800985080A85090B1247EC12480270B7
:1046E300030247A21238CC586870E8780A120A4AC3
:1046F300AC08AD097A567B181213747402120A5D62
:1047030090185FE508F0A3E5091248351247F95000
:10471300030247A990185DE014F0EEA2E092AF9077
:10472300185FE0240EF8A3E03400F9E8FEE9FF8EF9
:10473300828F831256DF90185F12439BF91227DE94
:10474300E990185AF0A31261A7E054806018125F31
:10475300852413124664F9120FEA125F852414129A
:104763004664F9120FDE124816A3E05401605F900D
:10477300185A125263604512482C604012482CF8B4
:10478300790090185A1256DF12034EE8C0E012481F
:104793000AD0E012483AC3941340117402800FEE1A
:1047A300A2E092AF803790185C02471A7400C0E011
:1047B300901860E0C81247E3D0E0800D12480A74F5
:1047C300011248351247E37401F07903800C901805
:1047D3005F124698A2E1B3E433F91210DA02323FD2
:1047E300241AF582E438F58322E50824FBF582E5F3
:1047F3000934FFF58322125BFC124693A2E72212CF
:10480300321BE508450922125FAD2419F582E4380D
:10481300F5832290185F12481D2212484FC8124890
:104823002522125C2638F58322125FAD2418124626
:104833009022124847C822124847F5838882A3A3CF
:10484300A3A3E022F090185F12484F22E0F8A3E000
:104853002274F712050CEAFEEBFF12292E1249FE11
:10486300A2E3400A123C9470059081098003908171
:104873000AE0F9EEFCEFFD7A567B1812137AE96031
:1048830037EEFAEFFB9018691248D2122BDFEE24B1
:104893000E124A01540470111243BE1248CBA3E016
:1048A30054017021122826801CEEFAEFFB90186148
:1048B3001248D2122BDF800D8E828F83A374F112E4
:1048C3004E0612281A024EC9125CD22290186B129D
:1048D30048D6221248DA22E0F8A3E0F58388822240
:1048E30002496674F712050CEAFEEBFF7900901893
:1048F300C3E05402700CEE2433124A0154046002E4
:1049030079E89018C3E05460700CEE2433124A0126
:104913005402600279E88E828F83A3A3A3A3E0F8F5
:1049230090810FE0C398500279E8EE2431124A01D6
:10493300700CEE242E124A01700479F5800BE97095
:1049430005122808E9F9E96007EEFAEFFB1228F8E7
:10495300024EC9C082C0838A828B83740DF0121CFD
:10496300508007C082C083122826D083D0820209D8
:10497300F274F412050CEAFEEBFF8E828F83E4F0EF
:10498300A3124A0954049081097012E0F890185D4B
:10499300E0C398401279F11228F802323FE0F89010
:1049A300185CE0C39850EE124A0FA3E0540160393B
:1049B300EE2437124A01C39405403CEE2433124AD5
:1049C30001540570327A717B18122A42EE2437F5AE
:1049D30082E43FF5831231FB7808120A427A717B35
:1049E30018122A367404120A5DEEFAEFFB9018BE11
:1049F300E0F912134A80A379E8809CEE2410F58233
:104A0300E43FF583E022F0124A0FE022EE2433F56F
:104A130082E43FF5832274F612050CE9FE2451FA71
:104A2300E43400FB12133EEA4B6015EE8A828B835B
:104A3300A3A3A3A3F0EA2451124A4A124D668004A9
:104A43007A007B000262B5F8E43BF98A828B83A388
:104A5300A322024966C082C08390187A747AF0A3B5
:104A63007428F0A374AAF0A37428F0A37480F0A3AD
:104A73007428F0A37486F0A37428F0A374A4F0A39D
:104A83007428F0A37498F0A37428F0A37492F0A38D
:104A93007428F0A374B0F0A37428F0A374B6F0A341
:104AA3007428F0A374BCF0A37428F0A374C8F0A313
:104AB3007428F0A3748CF0A37428F0A37474F0A387
:104AC3007428F0A3746EF0A37428F0901896749E63
:104AD300F0A37428F0A374C2F0A37428F0A374FAAB
:104AE300F0A37429F0A374CEF0A37428F0A374D4B4
:104AF300F0A37428F09018BAE4F09018BDF0901861
:104B0300A6124B157402F09018AF124B15740102E4
:104B1300449E74F2F0A37428F0A32274F512050CDA
:104B230074F1120AF18518828519837402F07401F5
:104B3300120D19E9F060047AFF7BFF7402120D195C
:104B4300126D707508B2750918750A007808120A93
:104B5300467C0B7D007407120D19AA82AB831213D6
:104B63001A7403120A5DAA18AB19121C50740F8031
:104B73000512131A7403120A5D7F0302076F74F799
:104B830012050C74FD120AF1851882851983740AC3
:104B9300F07401120D19E9F07402120D19EA124BA7
:104BA300B4121C50023C06851882851983EAF0A3CF
:104BB300EBF0AA18AB192274F612050C74F7120A5B
:104BC300F1EAFEEBFF124C161233C67402124D5774
:104BD300AA18AB191214E8EE2431125D41124C1CD1
:104BE3008A828B83E8F0A3E9124A09125D66120AEE
:104BF3004A7402120AD379831A1AEFFB12295E74DC
:104C030002120A5DE9F5087007EEFAEFFB12282C91
:104C13000262AE125CD2740122FB8A828B83124C35
:104C23002522E024FFF8A3E034FFF92274F01205F3
:104C33000C12682B120CC27808790C1203A778089F
:104C4300120A427AA97B1802322374F412050C74F7
:104C5300C6120AF1900579E0640F60108518828509
:104C63001983742E124BB412291080277AA07B1853
:104C7300122A4212324D12034E88088909E4F50ABA
:104C8300F50B7808120A427AA07B18122A367404AC
:104C9300120A5D743A02323C74F512050CEAFEEB1B
:104CA300FF8E828F83A3E0F86003024D40EE243031
:104CB300124A0164026007E06403600278E8EE24AC
:104CC30026F582E43FF583123246400478E880708B
:104CD300E8706AEE2426FAE43FFB79E1120FAEEEA8
:104CE3002431FAE43FFB7950120FAEEE2430124A1E
:104CF3000164027014EE2428F582E43FF583126206
:104D030026900588124D66801290058874FEF0A3E4
:104D130004124D577A7F7B051214F4EE241B1240C4
:104D230024120A467C0B7D007AB27B1812131A7484
:104D330003120A5DEEFAEFFB122868E9F8E8601146
:104D4300E88E828F83A31261A87417124E0612296C
:104D530010024B7CF0EE2428FCE43FFD2212622A71
:104D630090193B124D6A22E8F0A3E9F02274F6127F
:104D7300050C74F7120AF19018BDE0703B7401F052
:104D8300F912109EAA18AB191229407508B27509B9
:104D9300187808120A4A7508017509007808120A7A
:104DA3004A90058E1208757406120AD37A037905A0
:104DB3001229647406120A5D0262B074F712050CBC
:104DC300EAFEEBFF79011210A48E828F83E0642048
:104DD3007004A374EBF09018BDE0A2E25003C2E2AA
:104DE300F0E0A2E1500812501C122862800C8E825F
:104DF3008F83742A124E06122910024EC98E828F97
:104E030083742CF0EEFAEFFB2274F412050C74FE9B
:104E1300120AF1EAFEEBFF79011210A47AA07B18C3
:104E2300122A427AA97B18122A42125166851882E5
:104E3300851983125194E0F50B7011AA18AB1979F7
:104E430053120FAE124E91794A120FAE1240211235
:104E53000A467C0B7D007AB27B1812131A74031274
:104E63000A5D8518828519831256DFA90B12285C07
:104E73009018BDE0A2E1500C7A008E828F83A3E0EC
:104E8300F91228629018BDE4F0740202323CEE2459
:104E930013FAE43FFB2274F712050CEAFEEBFF8ED4
:104EA300828F83A374EBF09018BDE0A2E150077AE0
:104EB3000079EB122862EEFAEFFB1228988007EED6
:104EC300FAEFFB1229AC7F0102076F74F712050C8E
:104ED300EAFEEBFF79011210A47AA07B18122A4292
:104EE3007AA97B18122A429018BAE4F09018BDF000
:104EF3007AFF7BFF8E828F83A3E0F912285C80C642
:104F030074F712050CEAFEEBFF12289280B174F7D6
:104F130012050CEAFEEBFF79011210A48E828F8337
:104F2300A3A3A3A3E060047400800274EB124F6395
:104F33005003C2E2F0E0A2E1500812506512286269
:104F43008014A2E050108E828F83742AF0A374EB36
:104F5300124E06122910EEFAEFFB12283E024EC93A
:104F63008E828F83A3F09018BDE0A2E22274F61222
:104F7300050CEAFEEBFF9018BDE0D2E1F0790112D7
:104F8300109E8E828F83A3E0703C122946E9FAEECD
:104F9300240DF508E43FF5097808120A4A7508015B
:104FA3007509007808120A4A124FDA120875EE24BE
:104FB30002FCE43FFD79051229647406120A5DE9D7
:104FC3008E828F83A3F08E828F83A3E060067A00A4
:104FD300F91228620262B5124FDE22EE240BF5822B
:104FE300E43FF5832274F712050CEAFEEBFF790127
:104FF3001210A48E828F83E064207004A374EBF0FC
:105003009018BDE0A2E25003C2E2F0E0A2E1500634
:1050130012501C122862024EC9C2E1F07A008E823D
:105023008F83A3E0F92274F712050CEAFEEBFF79F4
:10503300011210A47AA07B18122A428E828F83A3B6
:10504300A3A3A3E060047400800274EB124F6350C7
:1050530003C2E2F0E0A2E150061250651228620298
:105063004F59C2E1123D66A3E0A2E4E433FA8E8213
:105073008F83A3E0F92274F712050CEAFEEBFF79A4
:10508300011210A48E828F83A374EB124F68500316
:10509300C2E2F0E0A2E1500612501C122862024E56
:1050A300C974F712050CEAFEEBFF7AA07B18122AEB
:1050B30042EEFAEFFB1228BC024EC274F712050C43
:1050C300EAFEEBFF7AA07B18122A42EEFAEFFB12FC
:1050D30028BC024EC974F712050C74EF120AF1EAE8
:1050E300FEEBFF125F637A7F7B051214E2E96062D5
:1050F3008518828519837409F07401120D1974EFF0
:10510300F0125166F87402120D19E8125194A3A318
:10511300E0C0E07404120D19D0E0125181640870EC
:10512300158E828F83A3A312515AE0C0E074051237
:105133000D19D0E080067405120D19E4125F957401
:1051430006120D19AA82AB83122976AA18AB19127B
:105153001C507411023C08125FB02407F582E43836
:10516300F58322EE12517812622A88828983E0FC49
:10517300A3E0F9EC22125D4FFB8A828B832212514A
:10518300852212518AE022F08E828F83A3A3A3A3E8
:1051930022F0A3E91251AD12519E221251A222E034
:1051A300F8A3E0F5838882A3A322F08A828B83226B
:1051B300C082C0831229B802496DC082C08390188F
:1051C300DA747AF0A37418F0A37496F0A37418F049
:1051D300901A22740BF0A3742FF0A37447F0A374F6
:1051E3002EF09018C67456F0A37428F09018C3E0FC
:1051F300440102449EC082C083EAFCEBFD790212A3
:10520300291C02496DC082C083790602643374F697
:1052130012050C74FE120AF19018BF125263600754
:105223007ABF7B181229349018C5E4F09013EC125E
:10523300526360248007AA18AB191229349018BE50
:10524300E0F91213568A088B09A808A90985188260
:10525300851983123E4370DE74020262B290185FB6
:1052630012622AE8492274F712050CE9FA7B0090CE
:1052730018BEE0F9121380024EC974F712050C74BC
:10528300F0120AF1EAFCEBFDE9FE8C828D83E0F873
:10529300749F1253A53431F583E493C0E074011273
:1052A3000D19D0E0F0640B700DEE8C828D83A3F0AA
:1052B30012299A0253A0E070030253A0640C600306
:1052C300025391741A6E700B7404120D19E4F0A357
:1052D3000253907404120D19ECF0A3EDF0EC243298
:1052E300F582E43DF583E0C0E07403120D19D0E0CC
:1052F30012654A120CEA7406120D19120CDE8C8226
:105303008D8312621D740A120D19E8F0A3E912537A
:10531300AAE054106009851882851983E48017EC8C
:105323002412F582E43DF583E0F890059BE0C398F1
:10533300851882851983F0E0C0E0740C120D19D032
:10534300E0F0EC2415F582E43DF583E0C0E0740D54
:10535300120D19D0E0F0EC2416F582E43DF583E05C
:10536300C0E0740E120D19D0E0F0EC2417F582E4BE
:105373003DF583E0C0E0740F120D19D0E01253AA7B
:10538300A3E0540160087401120D197411F0740242
:10539300120D19EEF07401120ACB121C5074100294
:1053A3003C0828F582E422F0EC125C263DF58322CA
:1053B300C082C0839018C5E070047901800279002F
:1053C30002496DC082C0839018C5E0600464027016
:1053D3000479018002790002496DC082C08390186C
:1053E300C5E06403700479018002790002496D7499
:1053F300F712050C9018C5E012546D742028F5823D
:10540300741A39F583125958C2E7F0125474A3E49D
:1054130093FE25E0FCE433FD74202CF582741A3DE1
:10542300125CDAEC4D6005EE9018C5F08A828B832E
:10543300E025E0FCE433FDE82CF582E93DF583E467
:1054430093FCC4540F25E0F874D41253A53418F513
:10545300831252637005122988800CEC540F125486
:10546300741248D2122BDF024EC925E0F8E433F957
:105473002225E0FCE82CF582E439F5832274F2124C
:10548300050C74FE120AF1890B8A088B0912556EFA
:10549300FA7B0012133E8A0C8B0DAE0CAF0DEE4F50
:1054A300602E8E828F83E50BF0A3E4F0F50A780873
:1054B300120A4612557B12339CFB12131A74031201
:1054C3000A5DEEFAEFFB9018BEE0F912134A801260
:1054D300851882851983E50BF0791AAA18AB19127E
:1054E30028F802383B74F012050C74FE120AF18995
:1054F3000B8A0E8B0F12556EF508FA7B0012133EC2
:105503008A0C8B0DAE0CAF0DEE4F60468E828F83EF
:10551300E50BF0A3E4F0A808EE28F8E43FF98E8247
:105523008F83A3A312558D850E08850F09F50A787D
:1055330008120A4612557B1237B912131A74031252
:105543000A5DEEFAEFFB9018BEE0F912134A7900F8
:105553008014851882851983E50BF0791AAA18AB94
:10556300191228F8791A7402023228747329F58201
:10557300E43431F583E49322A80B74681253A53401
:1055830031F583E493FC7D00EE22124D6A8E828F07
:1055930083A3A3A3A3E4F022C082C083E99018BE2F
:1055A30002449E74F612050C74FE120AF1EAFEEB35
:1055B300FFEE542070308039A8A8C2AF90185EE087
:1055C300141243C78A828B831256CF9018C1126D6F
:1055D30070122910851882851983E0641560077A93
:1055E300C17B181229347A587B18121368EA4B705E
:1055F300C7EF54807012801C9018C1126D7012296D
:10560300107AC17B181229349018BEE0F912135690
:10561300EA4B70E4EE5410600E851882851983748A
:105623002D124BB4122910EEA2E0500E851882857C
:1056330019837424124BB4122910EE5402600E85A0
:1056430018828519837425124BB4122910EE540461
:10565300600E8518828519837426124BB4122910A3
:10566300EE5408600E8518828519837428124BB492
:10567300122910EE544060107401120D191256E9EC
:10568300742C124BB4122910EE5480601074011262
:105693000D191256E9742F124BB41229109018BF2A
:1056A3001252636020A8A8C2AF9018BF1256DF90B1
:1056B30018BFE4F0A31243C7126D6F1229107AC109
:1056C3007B181229347A007B0002525B1256D322D4
:1056D300E0851882851983F02290183D1256E32243
:1056E300E0FAA3E0FB22E41256EE22F0851882854D
:1056F300198322C082C0839018C1126226EA68709F
:1057030002EB6970079018C1E4F0A3F002496D74CD
:10571300F712050CEAFEEBFFEE4F7003120D74A2B5
:10572300AFE433F508C2AF8E828F831252636028D1
:10573300E824FBFAE934FFFB9018C1125CDCE86C47
:105743007002E96D70079018C1E4F0A3F08E828FA8
:1057530083E4F0A3F01213E6023A5DC082C08390A3
:1057630018E8747CF0A37429F0A3748EF0A3742951
:10577300F0A37494F0A37429F0A37438F0A37428ED
:10578300F0A3749AF0A37429F0A37432F0A37428DD
:10579300F0A3743EF0A37428F09018F674CAF0A333
:1057A3007429F0A374A0F0A37429F0A374A6F0A342
:1057B3007429F0A374B2F0A37429F0A374ACF0A31A
:1057C3007429F09018E7E402449EC082C0839005D8
:1057D30088E064FE7003A3E0F470097C7F7D05120A
:1057E30014E8801C8A828B83A3A3A3A3A3A3A3A3EC
:1057F3007402F09005881262268A828B83124D66AA
:1058030002496DC082C083900592C3E094FEA3E079
:1058130094FF400479038002790202496DC082C07B
:10582300831259618C828D83125916687039740200
:1058330068701C8A828B8312586FE06870298A8291
:105843008B83A312586FA3E068701C7901801A74CC
:1058530003687013EC2405FC50010DEA2405FA508B
:10586300010B1214EE8002790002496DA3A3A3A3D6
:10587300A3E0F88C828D83A3A3A3A3A32274F612BF
:10588300050C7E00740A120D19E012590AFF8A8270
:105893008B83A3A3A3A3A3A3A3A3E06F7064740246
:1058A3006F704E8A828B83C082C08388828983A370
:1058B300A3A3A3A3E0F50888828983A3A3A3A3A337
:1058C300A3E0FBAA08D083D082E06A7003A3E06B55
:1058D300703088828983A3A3A3E0FA88828983A393
:1058E300A3A3A3E0F9EA6C7002E96D70157E018051
:1058F3001174036F700CE82405FCE439FD1214EEF7
:10590300E9FEEEF90262B5F8A3E0F9888289831211
:10591300591622A3E01313543F540322C082C083B9
:105923008A828B83A3A3A3A3A3A3A3A3E06402708C
:1059330016900588125958687003A3E069700479BA
:1059430001800F7900800BEAFCEBFD7A7F7B051267
:1059530014E202496D12622A8A828B83E0228A82D0
:105963008B83125916F82274F012050C74FC120A78
:10597300F1E9851882851983F07402120D19ECF090
:10598300A3EDF08A0A8B0B7508007402120D19122D
:1059930031F2C0E07401120D19D0E0125C16A2E7D7
:1059A3005008750EFF750FFF800A90058EE0F50E07
:1059B300A3E0F50F851882851983E0C2E7125C1B0B
:1059C30054206007125BE874088004125BE8E41259
:1059D3005C1B54046007125BF374808005125BF355
:1059E3007410125C1B54106006125BD2E4800B909F
:1059F300059BE0C0E0125BD2D0E0125C1BA2E0503A
:105A0300037508205408600674104508F5088A8257
:105A13008B83A3A3E024FFFEA3E034FFFFEA125B22
:105A2300DDC39402E0400F640B6009E0148E828FA3
:105A330083125C0C74034508F5087509009005AEE4
:105A4300E0640170118A828B83A3A3A3A3E0C394B0
:105A5300674003750910851882851983E0F50C7575
:105A63000D00740E780C120BABE50D4509F509E03A
:105A73006402701990059312653FF0900592E0C09F
:105A8300E01237C0D0E0F0EE24FEFE801CE0640399
:105A9300701DEE24F9FEEF34FFFF7CA27D05EEFAC4
:105AA300EFFB1214F4EE24FF1EEF34FFFF8003E03C
:105AB300602F7401120D19E060187414120D19E0AF
:105AC300650E7004A3E0650F700874404508F5087F
:105AD300800F8E828F83E50FF01237C0E50E125CC4
:105AE300027401120D19E0F50C750D00740A780C9F
:105AF300120BABE50D4509F509E06402702374024E
:105B0300120D191263718E828F83F07402120D19B4
:105B13001238DDC0E01237C0D0E0F0EE24FEFE8084
:105B230020E064037021EE24F9FEEF34FFFF7402DA
